:100000000C9472000C947E000C947E000C947E0084
:100010000C947E000C947E000C947E000C947E0068
:100020000C947E000C947E000C947E000C947E0058
:100030000C947E000C947E000C947E000C947E0048
:100040000C947E000C947E000C947E000C947E0038
:100050000C947E000C947E000C947E000C947E0028
:100060000C947E000C947E000C947E000C947E0018
:100070000C947E000C947E000C947E000C947E0008
:100080000C947E000C947E000C947E000C947E00F8
:100090000C947E000C947E000C947E000C947E00E8
:1000A0000C947E000C947E000C947E000C947E00D8
:1000B0000C947E000C947E000C947E000C947E00C8
:1000C0000C947E000C947E000C947E000C947E00B8
:1000D0000C947E000C947E000C947E000C947E00A8
:1000E0000C947E0011241FBECFEFD1E2DEBFCDBF46
:1000F00000E00CBF0E94A4000C94BB000C94000014
:10010000FC01408121E030E001C0220F6A95EAF74E
:100110002095242320830895FC01908121E030E084
:1001200001C0220F6A95EAF7922B908308950C94F0
:100130008000FC01908121E030E001C0220F6A952F
:10014000EAF7922B90830895CF93DF931F92CDB758
:10015000DEB766E070E081E091E00E948C008AE00A
:10016000898389818F5F898366E070E082E091E016
:0A0170000E949900F6CFF894FFCF2B
:00000001FF
